:0300000002091CD6
:0C091C00787FE4F6D8FD75810B0208001E
:10080000D2A7C295C294C2A6D2A7E4F50AF50B05F9
:100810000BE50B7002050AB420F5E50AB44EF0753D
:100820008901E4F58CF58AD2A6E4F50AF50B050BEF
:10083000E50B7002050A640B450A70F2C2A630A7E8
:10084000FDD28C20A7FDC28CAF8C7E00ADF0EFA84E
:1008500005088005C333CE33CED8F9F5098E08AF2D
:100860008A2FF509E43508F508FEAF097C007D05FF
:100870001208A78E088F09E4F58CF58AF50AF50BA6
:10088000050BE50B7002050AB421F5E50AB44EF03C
:10089000C3E509943CE50894005006D295D29480B3
:0708A00086C295C29480801E
:1008FC00E4FDFCC3ED9FEC9E5015E4FBFA0BBB0032
:0F090C00010ABA05F8BB5FF50DBD00010C80E4D0
:01091B0022B9
:1008A700BC000BBE0029EF8DF084FFADF022E4CC35
:1008B700F875F008EF2FFFEE33FEEC33FCEE9DECFE
:1008C700984005FCEE9DFE0FD5F0E9E4CEFD22ED44
:1008D700F8F5F0EE8420D21CFEADF075F008EF2F8E
:1008E700FFED33FD4007985006D5F0F222C398FD7F
:0508F7000FD5F0EA221C
:00000001FF
